:020000040000fa
:080000000002040000000000f2
:020000040000fa
:10000800d2020000d2020000d2020000d202000098
:10001800d2020000d2020000d2020000d202000088
:10002800d2020000d2020000d202000050110000eb
:10003800d2020000d2020000d2020000d202000068
:10004800d2020000d2020000d2020000d202000058
:10005800d2020000d2020000d2020000d202000048
:10006800d2020000d2020000d2020000d202000038
:10007800d2020000d2020000d2020000d202000028
:10008800d2020000d2020000d2020000d202000018
:10009800d2020000d2020000d2020000d202000008
:1000a800d2020000d2020000d2020000d2020000f8
:1000b800d2020000d2020000d2020000d2020000e8
:1000c800d2020000d2020000d2020000d2020000d8
:1000d800d2020000d2020000d2020000d2020000c8
:1000e800d202000000030000d2020000d202000089
:1000f800d2020000d2020000d2020000d2020000a8
:10010800d2020000d2020000d2020000d202000097
:10011800d2020000d2020000d2020000d202000087
:10012800d2020000d2020000d2020000d202000077
:10013800d2020000d2020000d2020000d202000067
:10014800d2020000d2020000d2020000d202000057
:10015800d2020000d2020000d2020000d202000047
:10016800d2020000d2020000d2020000d202000037
:10017800d2020000d2020000d2020000d202000027
:10018800d2020000d2020000d2020000d202000017
:10019800d2020000d2020000d2020000d202000007
:1001a800d2020000d2020000d2020000d2020000f7
:1001b800d2020000d2020000d2020000d2020000e7
:1001c800d2020000d2020000d2020000d2020000d7
:1001d800d2020000d2020000d2020000d2020000c7
:1001e800d2020000d2020000d2020000d2020000b7
:0801f800d2020000d202000057
:020000040000fa
:10020800d2020000d2020000d2020000d202000096
:10021800d2020000d2020000d2020000d202000086
:10022800d2020000d2020000d202000050110000e9
:10023800d2020000d2020000d2020000d202000066
:10024800d2020000d2020000d2020000d202000056
:10025800d2020000d2020000d2020000d202000046
:10026800d2020000d2020000d2020000d202000036
:10027800d2020000d2020000d2020000d202000026
:10028800d2020000d2020000d2020000d202000016
:10029800d2020000d2020000d2020000d202000006
:1002a800d2020000d2020000d2020000d2020000f6
:1002b800d2020000d2020000d2020000d2020000e6
:1002c800d2020000d2020000d2020000d2020000d6
:1002d800d2020000d2020000d2020000d2020000c6
:1002e800d202000000030000d2020000d202000087
:1002f800d2020000d2020000d2020000d2020000a6
:10030800d2020000d2020000d2020000d202000095
:10031800d2020000d2020000d2020000d202000085
:10032800d2020000d2020000d2020000d202000075
:10033800d2020000d2020000d2020000d202000065
:10034800d2020000d2020000d2020000d202000055
:10035800d2020000d2020000d2020000d202000045
:10036800d2020000d2020000d2020000d202000035
:10037800d2020000d2020000d2020000d202000025
:10038800d2020000d2020000d2020000d202000015
:10039800d2020000d2020000d2020000d202000005
:1003a800d2020000d2020000d2020000d2020000f5
:1003b800d2020000d2020000d2020000d2020000e5
:1003c800d2020000d2020000d2020000d2020000d5
:1003d800d2020000d2020000d2020000d2020000c5
:1003e800d2020000d2020000d2020000d2020000b5
:0803f800d2020000d202000055
:020000040000fa
:100400000f8720000e7f22000e01880000000000f0
:10041000000020000000e000020032000001200087
:10042000200288000c000700405521000100200038
:100430000f000700000020000000e0000200320072
:10044000000002000000000076140200000000001e
:100450000040da000000fe00200020000000e00064
:100460000200320010002000900188000000060009
:10047000a1028800800078000000eb001a0037001d
:10048000e280400054a0b4009101ba00e280400034
:1004900054a0b4009102ba00e280400054a0b4001d
:1004a0000002eb00472bde00f507b200a601880032
:1004b000602ce10008003a000049eb000201e8006e
:1004c000020039003420ec0002f0a0008301e900b2
:1004d000f9ff3e00040037006128e100010032000e
:1004e0000082eb00040007001101ba000200e000e6
:1004f000e3ff3a000000060004d0a300e20f490029
:100500001c003900810278003549ba000201e80078
:10051000020039003420ec0002f0a0008301e90061
:100520000f0032002549ba000201e800020039003c
:100530003420ec0002f0a0008301e9000800320042
:100540000400e0000600320015c9ba000201e8000c
:10055000020039003420ec0002f0a0008301e90021
:100560008180e80054a0b4000300e000e2ff3a00fc
:10057000000006009102ba00055978008301e900e5
:10058000f7ff3200c82ade00055978008301e90030
:10059000f3ff32000400e000f1ff320011d9ba008d
:0c05a000eeff37000040da000000fe0013
:020000040000fa
:1005ac000000fa000000280080178800f422ef00f9
:1005bc0020012000000107000000eb00f200070002
:1005cc000028ef000000eb00c70007000000eb0064
:1005dc00d10007008a20a9009a20a8000080fa0008
:1005ec00000006000000fa00edff07000080fa0092
:1005fc00000006003600f800809fbe00829fbe00ff
:10060c00849fbe00869fbe000200fa00004080005e
:10061c00e20f500094003200e20f5000030039004a
:10062c00e30f500083003200a100370081178000d7
:10063c0000402000008060000000e00005003a004f
:10064c00a117800000022000008060000000e00084
:10065c000a00320081178000000820000080600032
:10066c000000e00021003200a117800000202000d3
:10067c00008060000000e0001c003200a017800029
:10068c00640060000000e0000b003a001000200045
:10069c000901070016e8b700100020000040880090
:1006ac0016c8bf000004e000320032005017800072
:1006bc00004f7800300037000000eb00fe00070010
:1006cc00204080000000e000050032002040800047
:1006dc00104078000080fb0060178800f182a800b1
:1006ec002000200000408800230037008117800084
:1006fc0000402000008060000000e0001e0032007e
:10070c00a117800000022000008060000000e000c3
:10071c0019003a00a0178000640060000000e0009f
:10072c0004003a000a68ef00300020000040880006
:10073c000d0037000ac8bf000004e00007003200bb
:10074c000000eb00dc00070050052000601788005b
:10075c002000200000408800030037000a68ef00ea
:10076c00300020000040880050178000004f7800b7
:10077c00010037000000000000408000e10f500035
:10078c004c003a00a117800000022000008060009d
:10079c000000e00049003200a11780000004200096
:1007ac00008060000000e0001e003a001040800055
:1007bc000000e0001700320051178000f00f2000fd
:1007cc00808f50000f003200904080005117800045
:1007dc0001417800418620008270780090408000b2
:1007ec000000e8009040880090408000e50f500029
:1007fc0004003400804080000000e8008040880045
:10080c001228ef00104080005117800081407800c2
:10081c000148780020002000a700070016e8b70068
:10082c002900370050178000004f7800f4c2a9004f
:10083c0025003700300020009f00070016e8b700a5
:10084c0010c0b3000ae8b70016c8bf000004e000ef
:10085c000200320050178000004f7800100020007a
:10086c000040880018003700a11780000000280005
:10087c00008060000000e0000b003a000000eb007c
:10088c008d000700204080000000e0000d003200c9
:10089c0020408000104078000080fb00601788002a
:1008ac00f182a800080037000028ef00060037008e
:1008bc00ffff3700000000000300370000000000bd
:1008cc0001003700000000008a20a9000080fa0017
:1008dc004f03be004f02be004f01be004f00be00d2
:1008ec003600f900004006000200fa00000f780004
:1008fc009e007800214088000080fa00000006006d
:10090c000200fa00000f78001e007800f6ff0700c6
:10091c000080fa00000006000200fa00000f7800c8
:10092c009e007800114088000080fa00000006004c
:10093c000200fa00000f78001e007800f6ff070096
:10094c000080fa00000006000000fa002040800041
:10095c000080fa00000006000000fa00faff070011
:10096c000080fa00000006000000fa001040800031
:10097c000080fa00000006000000fa00faff0700f1
:10098c000080fa00000006000200fa00000f780058
:10099c009e007800c11788000080fa000000060055
:1009ac000200fa00000f78001e007800f6ff070026
:1009bc000080fa00000006000200fa00000f780028
:1009cc00f00720009e007800808f50000200360057
:1009dc00f142a80001003700f142a9000028ef0005
:1009ec009e007800b11788000080fa000000060015
:1009fc000200fa00000f78001e007800eeff0700de
:100a0c000080fa00000006000000fa002040800080
:100a1c000000e0000600320020408000104078000a
:100a2c000080fb0060178800f182a80001003700ed
:100a3c00000000000080fa00000006000000fa0030
:100a4c00104080000000e0001800320051178000b8
:100a5c00f00f2000808f50000f003200904080007b
:100a6c005117800001417800418620008270780087
:100a7c00904080000000e80090408800904080008a
:100a8c00e50f500004003400804080000000e800b6
:100a9c00804088001228ef00104080005117800021
:100aac008140780001487800010037000000000008
:100abc000080fa00000006000200fa00000f780027
:100acc001e007800e10f50000d003200e10f5000c5
:100adc0003003900e20f50000f0032002e003700e7
:100aec003140800040822000008040007eff0700e3
:100afc00304080000000e8003040880026003700bd
:100b0c000828ef0010c0b30015e8b70040812000a2
:100b1c0081ff07002000370015c8bf000004e0006b
:100b2c0016003200404080000000e00008003a004f
:100b3c0014c8bf000080fb004800dd003040880076
:100b4c00404080000000e800404088001200370060
:100b5c0040408000e10f50000e003a0014c8bf0066
:100b6c008080fb0030408000010070003040880025
:100b7c000828ef001568ef000700370030408000b0
:100b8c00428120001241780041822000827078005e
:100b9c00010037000000000010c0b3000080fa0014
:100bac00000006000000fa0060002000001588001c
:100bbc00a222ef0000c4290020158800002021008b
:100bcc0030158800a822ef00001580000040780046
:100bdc00674060000080fb00c04088000080fa0085
:100bec00000006000000fa00eeff07000080fa008b
:100bfc00000006000000fa004104800000402000c4
:100c0c00008060000000e000010032008940a90073
:100c1c000080fa00000006000000fa00f5ff070053
:100c2c000080fa00000006000000fa00c0408000be
:100c3c0000407800674060000080fb0067006000a7
:100c4c000215800081ff2f008100610001007000ff
:100c5c00001588000080fa00000006000000fa0071
:100c6c00f1ff07000080fa00000006000000fa0007
:100c7c00001580000000a1000010a1000020a100c0
:100c8c00001588000080fa00000006000000fa0041
:100c9c00f6ff07000080fa00000006000200fa00d0
:100cac00000f78009e007800311588000080fa0053
:100cbc00000006000200fa00000f78001e00780009
:100ccc00f6ff07000080fa00000006000400fa009e
:100cdc00000f7800110798009e00780031158800ed
:100cec009e009000211588000080fa00000006008c
:100cfc000400fa00000f7800110798009e00900085
:100d0c001e007800f1ff07000080fa0000000600ca
:100d1c000400fa00000f7800110798009e0078007c
:100d2c00311588009e009000211588000080fa0083
:100d3c00000006000400fa00000f7800110798006c
:100d4c009e0090001e007800f1ff07000080fa0062
:100d5c00000006000400fa00000f7800110798004c
:100d6c009e007800311588009e00900021158800a7
:100d7c000080fa00000006000400fa00000f780062
:100d8c00110798009e0090001e007800f1ff0700ec
:100d9c000080fa00000006000000fa004004800009
:100dac004a00de00614060000080fb0000f0a700fc
:100dbc000000ea000000ea004f00de00004078006e
:100dcc000080fa00000006000000fa00f2ff0700a5
:100ddc000080fa00000006000400fa0010079800da
:100dec001e009000e10f50000f003200e10f500088
:100dfc0003003900e20f5000150032001e003700ce
:100e0c00001580004400de00614060000080fb00a3
:100e1c0000f0a7000000ea000000ea004f00de002e
:100e2c00004f780014003700001580004500de00ec
:100e3c00614060000080fb0000f0a7000000ea00a9
:100e4c000000ea004f00de00004f78000a00370077
:100e5c00001580004600de00614060000080fb0051
:100e6c0000f0a7000000ea000000ea004f00de00de
:100e7c00004f7800000000001e4078000080fa004f
:100e8c00000006000200fa00000f78001e00780037
:100e9c00d1ff07000080fa00000006000200fa00f3
:100eac00000f78001e007800e10f500007003200a0
:100ebc00e10f500003003900e20f50000500320032
:100ecc0006003700a082a90004003700a0a2a900e8
:100edc0002003700a0c2a900000000000080fa0048
:100eec00000006000200fa00000f78001e007800d7
:100efc00eaff07000080fa00000006000000fa007c
:100f0c00a2c2a8000080fa00000006000000fa004f
:100f1c00101580004600de00614060000080fb0080
:100f2c0000f0a7000000ea000000ea004f00de001d
:100f3c00004078000080fa00000006000000fa0073
:100f4c00f2ff07000080fa00000006000000fa0023
:100f5c00a2c2a9000080fa00000006000000fa00fe
:100f6c00faff07000080fa00000006000000fa00fb
:100f7c0060002000b01488009822ef0000c4290003
:100f8c00d014880000442000e01488009e22ef005a
:100f9c00b014800000407800674060000080fb00c7
:100fac00d04088000080fa00000006000000fa0023
:100fbc00eeff07000080fa00000006000000fa00b7
:100fcc004104800000202000008060000000e00050
:100fdc00010032008920a9000080fa000000060000
:100fec000000fa00f5ff07000080fa000000060080
:100ffc000000fa00d040800000407800674060009c
:10100c000080fb0067006000b214800081ff2f009d
:10101c008100610001007000b01488000080fa00ab
:10102c00000006000000fa00f1ff07000080fa0043
:10103c00000006000000fa00b01480000000a100bf
:10104c000010a1000020a100b01488000080fa005c
:10105c00000006000000fa00f6ff07000080fa000e
:10106c00000006000200fa00000f78009e007800d5
:10107c00e11488000080fa00000006000200fa006b
:10108c00000f78001e007800f6ff07000080fa00c1
:10109c00000006000400fa00000f78001107980009
:1010ac009e007800e11488009e009000d114880006
:1010bc000080fa00000006000400fa00000f78001f
:1010cc00110798009e0090001e007800f1ff0700a9
:1010dc000080fa00000006000400fa00000f7800ff
:1010ec00110798009e007800e11488009e00900083
:1010fc00d11488000080fa00000006000400fa00f9
:10110c00000f7800110798009e0090001e007800d8
:10111c00f1ff07000080fa00000006000400fa004e
:10112c00000f7800110798009e007800e1148800e9
:10113c009e009000d11488000080fa000000060088
:10114c000400fa00000f7800110798009e00900030
:10115c001e007800f1ff07000080fa000000060076
:10116c000000fa00400480004900de00614060008d
:10117c000080fb0000f0a7000000ea000000ea007d
:10118c004f00de00004078000080fa0000000600ee
:10119c000000fa00f2ff07000080fa0000000600d1
:1011ac000400fa00100798001e009000e10f500098
:1011bc000f003200e10f500003003900e20f500025
:1011cc00150032001e003700b01480004400de0011
:1011dc00614060000080fb0000f0a7000000ea0006
:1011ec000000ea004f00de00004f780014003700ca
:1011fc00b01480004500de00614060000080fb0000
:10120c0000f0a7000000ea000000ea004f00de003a
:10121c00004f78000a003700b01480004600de0052
:10122c00614060000080fb0000f0a7000000ea00b5
:10123c000000ea004f00de00004f780000000000c4
:10124c001e4078000080fa00000006000200fa0040
:10125c00000f78001e007800d1ff07000080fa0014
:10126c00000006000200fa00000f78001e00780053
:10127c00e10f500007003200e10f5000030039006d
:10128c00e20f500005003200060037009682a900dc
:10129c000400370096a2a9000200370096c2a900ec
:1012ac00000000000080fa00000006000200fa00b6
:1012bc00000f78001e007800eaff07000080fa009b
:1012cc00000006000000fa0098c2a8000080fa0096
:1012dc00000006000000fa00c01480004600de008a
:1012ec00614060000080fb0000f0a7000000ea00f5
:1012fc000000ea004f00de00004078000080fa0099
:10130c00000006000000fa00f2ff07000080fa005f
:10131c00000006000000fa0098c2a9000080fa0044
:10132c00000006000000fa00faff07000080fa0037
:10133c00000006000000fa00600020006014880025
:10134c008e22ef0000c42900801488000044200085
:10135c00901488009422ef00601480000040780004
:10136c00674060000080fb00e04088000080fa00cd
:10137c00000006000000fa00eeff07000080fa00f3
:10138c00000006000000fa0031048000004020003c
:10139c00008060000000e000010032008740a900de
:1013ac000080fa00000006000000fa00f5ff0700bc
:1013bc000080fa00000006000000fa00e040800007
:1013cc0000407800674060000080fb006700600010
:1013dc006214800081ff2f00810061000100700009
:1013ec00601488000080fa00000006000000fa007b
:1013fc00f1ff07000080fa00000006000000fa0070
:10140c00601480000000a1000010a1000020a100c9
:10141c00601488000080fa00000006000000fa004a
:10142c00f6ff07000080fa00000006000200fa0038
:10143c00000f78009e007800911488000080fa005c
:10144c00000006000200fa00000f78001e00780071
:10145c00f6ff07000080fa00000006000400fa0006
:10146c00000f7800110798009e00780091148800f6
:10147c009e009000811488000080fa000000060095
:10148c000400fa00000f7800110798009e009000ed
:10149c001e007800f1ff07000080fa000000060033
:1014ac000400fa00000f7800110798009e007800e5
:1014bc00911488009e009000811488000080fa002e
:1014cc00000006000400fa00000f780011079800d5
:1014dc009e0090001e007800f1ff07000080fa00cb
:1014ec00000006000400fa00000f780011079800b5
:1014fc009e007800911488009e0090008114880052
:10150c000080fa00000006000400fa00000f7800ca
:10151c00110798009e0090001e007800f1ff070054
:10152c000080fa00000006000000fa003004800081
:10153c004a00de00614060000080fb0000f0a70064
:10154c000000ea000000ea004f00de0000407800d6
:10155c000080fa00000006000000fa00f2ff07000d
:10156c000080fa00000006000400fa001007980042
:10157c001e009000e10f50000f003200e10f5000f0
:10158c0003003900e20f5000150032001e00370036
:10159c00601480004400de00614060000080fb00ad
:1015ac0000f0a7000000ea000000ea004f00de0097
:1015bc00004f780014003700601480004500de00f6
:1015cc00614060000080fb0000f0a7000000ea0012
:1015dc000000ea004f00de00004f78000a003700e0
:1015ec00601480004600de00614060000080fb005b
:1015fc0000f0a7000000ea000000ea004f00de0047
:10160c00004f7800000000001e4078000080fa00b7
:10161c00000006000200fa00000f78001e0078009f
:10162c00d1ff07000080fa00000006000200fa005b
:10163c00000f78001e007800e10f50000700320008
:10164c00e10f500003003900e20f5000050032009a
:10165c00060037008c82a900040037008ca2a90078
:10166c00020037008cc2a900000000000080fa00c4
:10167c00000006000200fa00000f78001e0078003f
:10168c00eaff07000080fa00000006000000fa00e4
:10169c008ec2a8000080fa00000006000000fa00cc
:1016ac00701480004600de00614060000080fb008a
:1016bc0000f0a7000000ea000000ea004f00de0086
:1016cc00004078000080fa00000006000000fa00dc
:1016dc00f2ff07000080fa00000006000000fa008c
:1016ec008ec2a9000080fa00000006000000fa007b
:1016fc00faff07000080fa00000006000000fa0064
:10170c0060002000101488008422ef0000c429001f
:10171c003014880000402100401488008a22ef0019
:10172c001014800000407800674060000080fb00cf
:10173c00f04088000080fa00000006000000fa006b
:10174c00eeff07000080fa00000006000000fa001f
:10175c003104800000202000008060000000e000c8
:10176c00010032008720a9000080fa00000006006a
:10177c000000fa00f5ff07000080fa0000000600e8
:10178c000000fa00f04080000040780067406000e4
:10179c000080fb00670060001214800081ff2f00a6
:1017ac008100610001007000101488000080fa00b4
:1017bc00000006000000fa00f1ff07000080fa00ac
:1017cc00000006000000fa00101480000000a100c8
:1017dc000010a1000020a100101488000080fa0065
:1017ec00000006000000fa00f6ff07000080fa0077
:1017fc00000006000200fa00000f78009e0078003e
:10180c00411488000080fa00000006000200fa0073
:10181c00000f78001e007800f6ff07000080fa0029
:10182c00000006000400fa00000f78001107980071
:10183c009e007800411488009e00900031148800ae
:10184c000080fa00000006000400fa00000f780087
:10185c00110798009e0090001e007800f1ff070011
:10186c000080fa00000006000400fa00000f780067
:10187c00110798009e007800411488009e0090008b
:10188c00311488000080fa00000006000400fa0001
:10189c00000f7800110798009e0090001e00780041
:1018ac00f1ff07000080fa00000006000400fa00b7
:1018bc00000f7800110798009e00780041148800f2
:1018cc009e009000311488000080fa000000060091
:1018dc000400fa00000f7800110798009e00900099
:1018ec001e007800f1ff07000080fa0000000600df
:1018fc000000fa00300480004900de006140600006
:10190c000080fb0000f0a7000000ea000000ea00e5
:10191c004f00de00004078000080fa000000060056
:10192c000000fa00f2ff07000080fa000000060039
:10193c000400fa00100798001e009000e10f500000
:10194c000f003200e10f500003003900e20f50008d
:10195c00150032001e003700101480004400de0019
:10196c00614060000080fb0000f0a7000000ea006e
:10197c000000ea004f00de00004f78001400370032
:10198c00101480004500de00614060000080fb0008
:10199c0000f0a7000000ea000000ea004f00de00a3
:1019ac00004f78000a003700101480004600de005b
:1019bc00614060000080fb0000f0a7000000ea001e
:1019cc000000ea004f00de00004f7800000000002d
:1019dc001e4078000080fa00000006000200fa00a9
:1019ec00000f78001e007800d1ff07000080fa007d
:1019fc00000006000200fa00000f78001e007800bc
:101a0c00e10f500007003200e10f500003003900d5
:101a1c00e20f500005003200060037008282a90058
:101a2c000400370082a2a9000200370082c2a9007c
:101a3c00000000000080fa00000006000200fa001e
:101a4c00000f78001e007800eaff07000080fa0003
:101a5c00000006000000fa0084c2a8000080fa0012
:101a6c00000006000000fa00201480004600de0092
:101a7c00614060000080fb0000f0a7000000ea005d
:101a8c000000ea004f00de00004078000080fa0001
:101a9c00000006000000fa00f2ff07000080fa00c8
:101aac00000006000000fa0084c2a9000080fa00c1
:101abc00000006000000fa00faff07000080fa00a0
:101acc00000006000000fa0060002000c01388002f
:101adc007a22ef0000c42900e013880000002200e5
:101aec00f01388008022ef00c013800000407800c3
:101afc00674060000080fb00004188000080fa0015
:101b0c00000006000000fa00eeff07000080fa005b
:101b1c00000006000000fa002104800000042000f0
:101b2c00008060000000e0000100320084c0a900c9
:101b3c000080fa00000006000000fa00f5ff070024
:101b4c000080fa00000006000000fa00004180004e
:101b5c0000407800674060000080fb006700600078
:101b6c00c213800081ff2f00810061000100700012
:101b7c00c01388000080fa00000006000000fa0084
:101b8c00f1ff07000080fa00000006000000fa00d8
:101b9c00c01380000000a1000010a1000020a100d3
:101bac00c01388000080fa00000006000000fa0054
:101bbc00f6ff07000080fa00000006000200fa00a1
:101bcc00000f78009e007800f11388000080fa0066
:101bdc00000006000200fa00000f78001e007800da
:101bec00f6ff07000080fa00000006000400fa006f
:101bfc00000f7800110798009e007800f113880000
:101c0c009e009000e11388000080fa00000006009e
:101c1c000400fa00000f7800110798009e00900055
:101c2c001e007800f1ff07000080fa00000006009b
:101c3c000400fa00000f7800110798009e0078004d
:101c4c00f11388009e009000e11388000080fa00d8
:101c5c00000006000400fa00000f7800110798003d
:101c6c009e0090001e007800f1ff07000080fa0033
:101c7c00000006000400fa00000f7800110798001d
:101c8c009e007800f11388009e009000e1138800fc
:101c9c000080fa00000006000400fa00000f780033
:101cac00110798009e0090001e007800f1ff0700bd
:101cbc000080fa00000006000000fa0020048000fa
:101ccc004600de00614060000080fb0000f0a700d1
:101cdc000000ea000000ea004f00de00004078003f
:101cec000080fa00000006000000fa00f2ff070076
:101cfc000080fa00000006000400fa0010079800ab
:101d0c001e009000e10f50000f003200e10f500058
:101d1c0003003900e20f5000150032001e0037009e
:101d2c00c01380004400de00614060000080fb00b6
:101d3c0000f0a7000000ea000000ea004f00de00ff
:101d4c00004f780014003700c01380004500de00ff
:101d5c00614060000080fb0000f0a7000000ea007a
:101d6c000000ea004f00de00004f78000a00370048
:101d7c00c01380004600de00614060000080fb0064
:101d8c0000f0a7000000ea000000ea004f00de00af
:101d9c00004f7800000000001e4078000080fa0020
:101dac00000006000200fa00000f78001e00780008
:101dbc00d1ff07000080fa00000006000200fa00c4
:101dcc00000f78001e007800e10f50000700320071
:101ddc00e10f500003003900e20f50000500320003
:101dec00060037007882a9000400370078a2a90009
:101dfc000200370078c2a900000000000080fa0041
:101e0c00000006000200fa00000f78001e007800a7
:101e1c00eaff07000080fa00000006000000fa004c
:101e2c007ac2a8000080fa00000006000000fa0048
:101e3c00d01380004600de00614060000080fb0093
:101e4c0000f0a7000000ea000000ea004f00de00ee
:101e5c00004078000080fa00000006000000fa0044
:101e6c00f2ff07000080fa00000006000000fa00f4
:101e7c007ac2a9000080fa00000006000000fa00f7
:101e8c00faff07000080fa00000006000000fa00cc
:101e9c0060002000701388007022ef0000c429003d
:101eac009013880050bd2000a01388007622ef000c
:101ebc007013800000407800674060000080fb00d9
:101ecc00104188000080fa00000006000000fa00b3
:101edc00eeff07000080fa00000006000000fa0088
:101eec0020048000640060000000e000010032006b
:101efc008440a9000080fa00000006000000fa00ef
:101f0c00f6ff07000080fa00000006000000fa004f
:101f1c001041800000407800674060000080fb00aa
:101f2c00670060007213800081ff2f008100610048
:101f3c0001007000701388000080fa000000060099
:101f4c000000fa00f1ff07000080fa000000060014
:101f5c000000fa00701380000000a1000010a10026
:101f6c000020a100701388000080fa000000060019
:101f7c000000fa00f6ff07000080fa0000000600df
:101f8c000200fa00000f78009e007800a113880070
:101f9c000080fa00000006000200fa00000f780032
:101fac001e007800f6ff07000080fa000000060013
:101fbc000400fa00000f7800110798009e007800ca
:101fcc00a11388009e009000911388000080fa00f5
:101fdc00000006000400fa00000f780011079800ba
:101fec009e0090001e007800f1ff07000080fa00b0
:101ffc00000006000400fa00000f7800110798009a
:10200c009e007800a11388009e0090009113880018
:10201c000080fa00000006000400fa00000f7800af
:10202c00110798009e0090001e007800f1ff070039
:10203c000080fa00000006000400fa00000f78008f
:10204c00110798009e007800a11388009e00900054
:10205c00911388000080fa00000006000400fa00ca
:10206c00000f7800110798009e0090001e00780069
:10207c00f1ff07000080fa00000006000000fa00e3
:10208c00200480004200de00614060000080fb0004
:10209c0000f0a7000000ea000000ea004f00de009c
:1020ac00004078000080fa00000006000000fa00f2
:1020bc00f2ff07000080fa00000006000400fa009e
:1020cc00100798001e009000e10f50000f00320026
:1020dc00e10f500003003900e20f500015003200f0
:1020ec001e003700701380004400de006140600069
:1020fc000080fb0000f0a7000000ea000000ea00ee
:10210c004f00de00004f7800140037007013800081
:10211c004500de00614060000080fb0000f0a7007d
:10212c000000ea000000ea004f00de00004f7800db
:10213c000a003700701380004600de00614060002a
:10214c000080fb0000f0a7000000ea000000ea009d
:10215c004f00de00004f7800000000001e407800a9
:10216c000080fa00000006000200fa00000f780060
:10217c001e007800d1ff07000080fa000000060066
:10218c000200fa00000f78001e007800e10f5000ea
:10219c0007003200e10f500003003900e20f50003d
:1021ac0005003200060037006e82a90004003700db
:1021bc006ea2a900020037006ec2a9000000000048
:1021cc000080fa00000006000200fa00000f780000
:1021dc001e007800eaff07000080fa0000000600ed
:1021ec000000fa0070c2a8000080fa00000006008f
:1021fc000000fa00801380004600de0061406000a1
:10220c000080fb0000f0a7000000ea000000ea00dc
:10221c004f00de00004078000080fa00000006004d
:10222c000000fa00f2ff07000080fa000000060030
:10223c000000fa0070c2a9000080fa00000006003d
:10224c000000fa00faff07000080fa000000060008
:10225c000000fa0000012800801288004c22ef00d8
:10226c00a00f2000701288008460a9009460a80060
:10227c00a08620008040eb00014878000080fa0026
:10228c00000006000000fa00f1ff07000080fa00d1
:10229c00000006003600f800809fbe00829fbe0042
:1022ac00849fbe00869fbe000000fa003e0007001f
:1022bc00b0862000104078008040e800b0862000f6
:1022cc0001487800a086200011c0b30001487800b6
:1022dc008460a9000080fa004f03be004f02be00cc
:1022ec004f01be004f00be003600f9000040060052
:1022fc000200fa00000f78009e007800711288002e
:10230c00a08620008040eb00014878000080fa0095
:10231c00000006000200fa00000f78001e00780092
:10232c00f3ff07000080fa00000006000000fa002e
:10233c00701280000080fa00000006000000fa0015
:10234c00faff07000080fa00000006000200fa0005
:10235c00000f78009e00780061128800a086200093
:10236c008040eb00014878000080fa000000060075
:10237c000200fa00000f78001e007800f3ff07003f
:10238c000080fa00000006000000fa0060128000d5
:10239c000080fa00000006000000fa00faff0700b7
:1023ac000080fa00000006000000fa006040800087
:1023bc000000e800604088000080fa000000060081
:1023cc000000fa00a08620008040eb000148780055
:1023dc009460a80051e2a8000080fa0000000600fa
:1023ec000000fa00f6ff07000080fa00000006006b
:1023fc000000fa0051e2a9009460a9000080fa00e4
:10240c00000006000000fa00f9ff07000080fa0047
:10241c00000006000200fa00a0862000104f780091
:10242c001e4078000004e00003003200a08620006b
:10243c008040eb00014878001e4078000080fa00d4
:10244c00000006000000fa00f2ff07000080fa000e
:10245c00000006000000fa00b08620001040780052
:10246c000080fa00000006000000fa00f9ff0700e7
:10247c000080fa00000006000000fa00b086200080
:10248c008040eb00014878000080fa000000060054
:10249c000000fa00f8ff07000080fa0000000600b8
:1024ac000000fa0000012800f01288005622ef000c
:1024bc0000712200d0128800c08620008040eb0002
:1024cc00014878000080fa00000006000000fa00c5
:1024dc00f3ff07000080fa00000006000000fa007d
:1024ec002104800000102000008060000000e0004b
:1024fc0009003200d0862000104078008040e800af
:10250c00d086200001487800c086200011c0b3009e
:10251c00014878008500a9000080fa000000060040
:10252c000000fa00edff07000080fa000000060032
:10253c000200fa00000f78009e007800d11288008b
:10254c00c08620008040eb00014878000080fa0033
:10255c00000006000200fa00000f78001e00780050
:10256c00f3ff07000080fa00000006000000fa00ec
:10257c00d01280000080fa00000006000000fa0073
:10258c00faff07000080fa00000006000200fa00c3
:10259c00000f78009e007800b1128800c0862000e1
:1025ac008040eb00014878000080fa000000060033
:1025bc000200fa00000f78001e007800f3ff0700fd
:1025cc000080fa00000006000000fa00b012800043
:1025dc000080fa00000006000000fa00faff070075
:1025ec000080fa00000006000000fa00c0862000ff
:1025fc008040eb00014878005fe2a8000080fa0000
:10260c00000006000000fa00f7ff07000080fa0047
:10261c00000006000000fa005fe2a9000080fa004a
:10262c00000006000000fa00faff07000080fa0024
:10263c00000006000200fa00c0862000104f78004f
:10264c001e4078000004e00003003200c086200029
:10265c008040eb00014878001e4078000080fa00b2
:10266c00000006000000fa00f2ff07000080fa00ec
:10267c00000006000000fa00d08620001040780010
:10268c000080fa00000006000000fa00f9ff0700c5
:10269c000080fa00000006000000fa00d08620003e
:1026ac008040eb00014878000080fa000000060032
:1026bc000000fa00f8ff07000080fa000000060096
:1026cc000000fa0000002800e01288005222ef00ff
:1026dc0000c42900c0128800e08620008040eb0076
:1026ec00014878000080fa00000006000000fa00a3
:1026fc00f3ff07000080fa00000006000000fa005b
:10270c002104800000082000008060000000e00030
:10271c0009003200f0862000104078008040e8006c
:10272c00f086200001487800e086200011c0b3003c
:10273c000148780084e0a9000080fa00000006003f
:10274c000000fa00edff07000080fa000000060010
:10275c000200fa00000f78009e007800c112880079
:10276c00e08620008040eb00014878000080fa00f1
:10277c00000006000200fa00000f78001e0078002e
:10278c00f3ff07000080fa00000006000000fa00ca
:10279c00c01280000080fa00000006000000fa0061
:1027ac00faff07000080fa00000006000200fa00a1
:1027bc00000f78009e00780091128800e0862000bf
:1027cc008040eb00014878000080fa000000060011
:1027dc000200fa00000f78001e007800f3ff0700db
:1027ec000080fa00000006000000fa009012800041
:1027fc000080fa00000006000000fa00faff070053
:10280c000080fa00000006000000fa00e0862000bc
:10281c008040eb00014878005de2a8000080fa00df
:10282c00000006000000fa00f7ff07000080fa0025
:10283c00000006000000fa005de2a9000080fa002a
:10284c00000006000000fa00faff07000080fa0002
:10285c00000006000200fa00e0862000104f78000d
:10286c001e4078000004e00003003200e0862000e7
:10287c008040eb00014878001e4078000080fa0090
:10288c00000006000000fa00f2ff07000080fa00ca
:10289c00000006000000fa00f086200010407800ce
:1028ac000080fa00000006000000fa00f9ff0700a3
:1028bc000080fa00000006000000fa00f0862000fc
:1028cc008040eb00014878000080fa000000060010
:1028dc000000fa00f8ff07000080fa000000060074
:1028ec000400fa00f20007000c28ef001000200092
:1028fc00000f78008461a900200320005e0007000f
:10290c008ee1a900400120005b0007008ec1a900e8
:10291c00e0012000580007008ea1a900400620000d
:10292c0055000700804080000000e00005003200e8
:10293c001028ef0040862000104078000004e000d2
:10294c0000003200100c8000640060000000e00009
:10295c00190032000c28ef0000000000100c800061
:10296c00640060000000e000fcff3a006140800061
:10297c00110798009e009000803e2000808f500030
:10298c00030034001e0078003700070008003700f1
:10299c001e0fe8001e007800e40f50000200340007
:1029ac0010002000000f78001e00780009000700be
:1029bc00401f2000300007008ee1a80020032000fb
:1029cc002d0007008ee1a900a00020002a000700be
:1029dc00d4ff37000200fa00000f78001e007800c8
:1029ec00e20f50000f003200e20f500003003c00d9
:1029fc00e10f50000600320019003700e30f5000c1
:102a0c000d003200e40f50001000320014003700ab
:102a1c008ec1a90010002000170007008ea1a9008c
:102a2c000f0037008ec1a800100020001200070014
:102a3c008ea1a9000a0037008ec1a9001000200049
:102a4c000d0007008ea1a800050037008ec1a8005c
:102a5c0010002000080007008ea1a8000000000054
:102a6c000080fa00000006000200fa00000f780057
:102a7c000080fa00000006000200fa00000f780047
:102a8c000c28ef0000000000604080009e0f5000fa
:0c2a9c00fdff34000080fa00000006007e
:020000040000fa
:102aa800240800004000000082000000ffffff0033
:102ab800ffffff00ffffff00ffffff00ffffff001a
:102ac800ffffff00ffffff00ffffff00ffffff000a
:102ad800ffffff00ffffff00ffffff00ffffff00fa
:102ae800ffffff00ffffff00ffffff00ffffff00ea
:102af800ffffff00ffffff00ffffff00ffffff00da
:102b0800ff000000000800000c000000800000002a
:102b1800140800000400000082000000aa0101005f
:102b280000000000180800000200000080000000fb
:102b38001a08000002000000800000001c080000c5
:102b480002000000800000001e08000002000000d3
:102b58008000000020080000020000008000000043
:102b68002208000002000000800000006a0800003f
:102b78000200000080000000640800000600000059
:102b8800800000000c080000080000008000000021
:102b98006c08000002000000800000006e080000c1
:0c2ba8000200000080000000000000009f
:020000040000fa
:102bb4000000fa0080002000200c88006000200043
:102bc400000c8800000e2000700c8800f01020001b
:102bd400500c88008821ef0030002000900c880001
:102be40001088000f00b20000081600060042000d8
:102bf4007105200003102000804978008149780085
:102c040082497800f11e8000f00f2c008080600063
:102c14000020210001007000f01e8800011f8000c8
:102c240000fc2f00008060001001b300001f88002a
:102c3400011f8000f00f2c00808060000000210044
:102c440001007000001f8800111f8000f00f2c008d
:102c54008080600000f0200001007000101f8800d8
:102c6400211f800000fc2f0000806000e000b30002
:102c7400201f8800211f8000f00f2c00808060003e
:102c840000d0200001007000201f8800010880008f
:102c94000004200001017000600420007105200080
:102ca4000310200080497800814978008249780027
:102cb4000080fa00000006000000fa000e00070081
:102cc400bbff07001200070072fc07007ffb070030
:102cd4008cfa070099f90700a6f80700b3f7070074
:102ce40031f607005cfd070077fe0700eefd0700e4
:102cf4000080fa00000006000000fa000010230023
:102d0400100888000621ef000080fa000000060089
:102d14000000fa00e00580000040a0000050a1007f
:102d24000060a100e00588002005800000c0a0002c
:102d340000d0a10000e0a100200588000080fa0076
:042d44000000060085
:020000040000fa
:020000040001f9
:0457f000ffff0000b7
:020000040000fa
:020000040001f9
:0457f400fffe0000b4
:020000040000fa
:020000040001f9
:0457f8009fbf00004f
:020000040000fa
:020000040001f9
:0457fc00ff3f00006b
:00000001FF
